{
  "_format": "hh-sol-artifact-1",
  "contractName": "AvaxBridge",
  "sourceName": "contracts/AvaxBridge.sol",
  "abi": [
    {
      "inputs": [
        {
          "internalType": "address",
          "name": "_bridgeAddress",
          "type": "address"
        }
      ],
      "stateMutability": "nonpayable",
      "type": "constructor"
    },
    {
      "anonymous": false,
      "inputs": [
        {
          "indexed": true,
          "internalType": "address",
          "name": "sender",
          "type": "address"
        },
        {
          "indexed": false,
          "internalType": "uint256",
          "name": "amount",
          "type": "uint256"
        },
        {
          "indexed": false,
          "internalType": "uint256",
          "name": "tokenID",
          "type": "uint256"
        },
        {
          "indexed": false,
          "internalType": "string",
          "name": "tokenName",
          "type": "string"
        }
      ],
      "name": "Log",
      "type": "event"
    },
    {
      "anonymous": false,
      "inputs": [
        {
          "indexed": true,
          "internalType": "address",
          "name": "recipent",
          "type": "address"
        },
        {
          "indexed": false,
          "internalType": "uint256",
          "name": "amount",
          "type": "uint256"
        },
        {
          "indexed": false,
          "internalType": "uint256",
          "name": "tokenID",
          "type": "uint256"
        },
        {
          "indexed": false,
          "internalType": "string",
          "name": "tokenName",
          "type": "string"
        }
      ],
      "name": "LogReceive",
      "type": "event"
    },
    {
      "inputs": [
        {
          "internalType": "uint256",
          "name": "_amount",
          "type": "uint256"
        },
        {
          "internalType": "address",
          "name": "_recipent",
          "type": "address"
        },
        {
          "internalType": "uint256",
          "name": "_tokenID",
          "type": "uint256"
        }
      ],
      "name": "ClearERC20",
      "outputs": [],
      "stateMutability": "nonpayable",
      "type": "function"
    },
    {
      "inputs": [
        {
          "internalType": "address payable",
          "name": "_to",
          "type": "address"
        },
        {
          "internalType": "uint256",
          "name": "_amount",
          "type": "uint256"
        }
      ],
      "name": "ClearETH",
      "outputs": [],
      "stateMutability": "nonpayable",
      "type": "function"
    },
    {
      "inputs": [
        {
          "internalType": "string",
          "name": "_name",
          "type": "string"
        },
        {
          "internalType": "string",
          "name": "_symbol",
          "type": "string"
        },
        {
          "internalType": "address",
          "name": "_tokenAddress",
          "type": "address"
        },
        {
          "internalType": "uint256",
          "name": "_decimal",
          "type": "uint256"
        }
      ],
      "name": "addSupportedToken",
      "outputs": [],
      "stateMutability": "nonpayable",
      "type": "function"
    },
    {
      "inputs": [
        {
          "internalType": "uint256",
          "name": "_amount",
          "type": "uint256"
        },
        {
          "internalType": "uint256",
          "name": "_tokenID",
          "type": "uint256"
        }
      ],
      "name": "approveToken",
      "outputs": [],
      "stateMutability": "nonpayable",
      "type": "function"
    },
    {
      "inputs": [],
      "name": "bridgeAddress",
      "outputs": [
        {
          "internalType": "address",
          "name": "",
          "type": "address"
        }
      ],
      "stateMutability": "view",
      "type": "function"
    },
    {
      "inputs": [
        {
          "internalType": "uint256",
          "name": "_amount",
          "type": "uint256"
        },
        {
          "internalType": "uint256",
          "name": "_tokenID",
          "type": "uint256"
        }
      ],
      "name": "deposit",
      "outputs": [],
      "stateMutability": "nonpayable",
      "type": "function"
    },
    {
      "inputs": [],
      "name": "owner",
      "outputs": [
        {
          "internalType": "address",
          "name": "",
          "type": "address"
        }
      ],
      "stateMutability": "view",
      "type": "function"
    },
    {
      "inputs": [
        {
          "internalType": "uint256",
          "name": "_tokenId",
          "type": "uint256"
        }
      ],
      "name": "pauseToken",
      "outputs": [],
      "stateMutability": "nonpayable",
      "type": "function"
    },
    {
      "inputs": [
        {
          "internalType": "uint256",
          "name": "_amount",
          "type": "uint256"
        },
        {
          "internalType": "address",
          "name": "_recipent",
          "type": "address"
        },
        {
          "internalType": "uint256",
          "name": "_tokenID",
          "type": "uint256"
        }
      ],
      "name": "recive",
      "outputs": [
        {
          "internalType": "bool",
          "name": "",
          "type": "bool"
        }
      ],
      "stateMutability": "nonpayable",
      "type": "function"
    },
    {
      "inputs": [
        {
          "internalType": "uint256",
          "name": "_txID",
          "type": "uint256"
        }
      ],
      "name": "setCompleted",
      "outputs": [],
      "stateMutability": "nonpayable",
      "type": "function"
    },
    {
      "inputs": [
        {
          "internalType": "uint256",
          "name": "",
          "type": "uint256"
        }
      ],
      "name": "supportedTokens",
      "outputs": [
        {
          "internalType": "string",
          "name": "name",
          "type": "string"
        },
        {
          "internalType": "address",
          "name": "tokenAddress",
          "type": "address"
        },
        {
          "internalType": "string",
          "name": "symbol",
          "type": "string"
        },
        {
          "internalType": "uint256",
          "name": "decimal",
          "type": "uint256"
        },
        {
          "internalType": "bool",
          "name": "available",
          "type": "bool"
        }
      ],
      "stateMutability": "view",
      "type": "function"
    },
    {
      "inputs": [],
      "name": "tokenCount",
      "outputs": [
        {
          "internalType": "uint256",
          "name": "",
          "type": "uint256"
        }
      ],
      "stateMutability": "view",
      "type": "function"
    },
    {
      "inputs": [],
      "name": "transactionCount",
      "outputs": [
        {
          "internalType": "uint256",
          "name": "",
          "type": "uint256"
        }
      ],
      "stateMutability": "view",
      "type": "function"
    },
    {
      "inputs": [
        {
          "internalType": "uint256",
          "name": "",
          "type": "uint256"
        }
      ],
      "name": "transactions",
      "outputs": [
        {
          "internalType": "address",
          "name": "sender",
          "type": "address"
        },
        {
          "internalType": "uint256",
          "name": "amount",
          "type": "uint256"
        },
        {
          "internalType": "uint256",
          "name": "targetchain",
          "type": "uint256"
        },
        {
          "internalType": "uint256",
          "name": "tokenId",
          "type": "uint256"
        },
        {
          "internalType": "uint256",
          "name": "status",
          "type": "uint256"
        }
      ],
      "stateMutability": "view",
      "type": "function"
    },
    {
      "inputs": [
        {
          "internalType": "uint256",
          "name": "_tokenId",
          "type": "uint256"
        }
      ],
      "name": "unpauseToken",
      "outputs": [],
      "stateMutability": "nonpayable",
      "type": "function"
    },
    {
      "inputs": [],
      "name": "viewCount",
      "outputs": [
        {
          "internalType": "uint256",
          "name": "",
          "type": "uint256"
        }
      ],
      "stateMutability": "view",
      "type": "function"
    },
    {
      "inputs": [
        {
          "internalType": "uint256",
          "name": "_tokenID",
          "type": "uint256"
        }
      ],
      "name": "viewSupportedToken",
      "outputs": [
        {
          "components": [
            {
              "internalType": "string",
              "name": "name",
              "type": "string"
            },
            {
              "internalType": "address",
              "name": "tokenAddress",
              "type": "address"
            },
            {
              "internalType": "string",
              "name": "symbol",
              "type": "string"
            },
            {
              "internalType": "uint256",
              "name": "decimal",
              "type": "uint256"
            },
            {
              "internalType": "bool",
              "name": "available",
              "type": "bool"
            }
          ],
          "internalType": "struct AvaxBridge.Tokens",
          "name": "",
          "type": "tuple"
        }
      ],
      "stateMutability": "view",
      "type": "function"
    },
    {
      "inputs": [],
      "name": "viewTxCount",
      "outputs": [
        {
          "internalType": "uint256",
          "name": "",
          "type": "uint256"
        }
      ],
      "stateMutability": "view",
      "type": "function"
    },
    {
      "inputs": [
        {
          "internalType": "uint256",
          "name": "_txID",
          "type": "uint256"
        }
      ],
      "name": "wss",
      "outputs": [
        {
          "components": [
            {
              "internalType": "address",
              "name": "sender",
              "type": "address"
            },
            {
              "internalType": "uint256",
              "name": "amount",
              "type": "uint256"
            },
            {
              "internalType": "uint256",
              "name": "targetchain",
              "type": "uint256"
            },
            {
              "internalType": "uint256",
              "name": "tokenId",
              "type": "uint256"
            },
            {
              "internalType": "uint256",
              "name": "status",
              "type": "uint256"
            }
          ],
          "internalType": "struct AvaxBridge.Transaction",
          "name": "",
          "type": "tuple"
        }
      ],
      "stateMutability": "view",
      "type": "function"
    }
  ],
  "bytecode": "0x60806040526001600355600160045534801561001a57600080fd5b5060405161165f38038061165f8339810160408190526100399161006c565b60008054336001600160a01b031991821617909155600180549091166001600160a01b039290921691909117905561009c565b60006020828403121561007e57600080fd5b81516001600160a01b038116811461009557600080fd5b9392505050565b6115b4806100ab6000396000f3fe608060405234801561001057600080fd5b50600436106101215760003560e01c8063a3c573eb116100ad578063ccac03ed11610071578063ccac03ed1461030b578063e2bbb15814610313578063e6af58de14610326578063fbd395f814610346578063fdacd5761461035957600080fd5b8063a3c573eb14610295578063b0eaf40e146102a8578063b17a71d8146102cb578063b77bf600146102de578063c6255626146102e757600080fd5b8063742649ca116100f4578063742649ca146101c2578063776ab634146101d55780638da5cb5b146101e85780639ace38c2146102135780639f181b5e1461028c57600080fd5b80631b70a3a2146101265780631eabdb2814610188578063283001f71461019d5780632cb3e7e1146101b0575b600080fd5b610139610134366004610f0b565b61036c565b60405161017f919081516001600160a01b031681526020808301519082015260408083015190820152606080830151908201526080918201519181019190915260a00190565b60405180910390f35b61019b610196366004610fdf565b6103ff565b005b61019b6101ab36600461105d565b610502565b6004545b60405190815260200161017f565b61019b6101d036600461107f565b6105ca565b61019b6101e3366004610f0b565b6106ef565b6000546101fb906001600160a01b031681565b6040516001600160a01b03909116815260200161017f565b61025a610221366004610f0b565b600660205260009081526040902080546001820154600283015460038401546004909401546001600160a01b0390931693919290919085565b604080516001600160a01b0390961686526020860194909452928401919091526060830152608082015260a00161017f565b6101b460035481565b6001546101fb906001600160a01b031681565b6102bb6102b636600461107f565b610737565b604051901515815260200161017f565b61019b6102d93660046110b7565b6108ee565b6101b460045481565b6102fa6102f5366004610f0b565b61094e565b60405161017f959493929190611129565b6003546101b4565b61019b61032136600461105d565b610a9f565b610339610334366004610f0b565b610cd4565b60405161017f9190611177565b61019b610354366004610f0b565b610e84565b61019b610367366004610f0b565b610ec9565b6103a76040518060a0016040528060006001600160a01b03168152602001600081526020016000815260200160008152602001600081525090565b50600090815260066020908152604091829020825160a08101845281546001600160a01b0316815260018201549281019290925260028101549282019290925260038201546060820152600490910154608082015290565b6000546001600160a01b031633146104325760405162461bcd60e51b8152600401610429906111e9565b60405180910390fd5b6040805160a0810182528581526001600160a01b03841660208083019190915281830186905260608201849052600160808301526003546000908152600590915291909120815181906104859082611294565b5060208201516001820180546001600160a01b0319166001600160a01b03909216919091179055604082015160028201906104c09082611294565b5060608201516003828101919091556080909201516004909101805460ff191691151591909117905580549060006104f78361136a565b919050555050505050565b60008181526005602052604090206001810154600280546001600160a01b0319166001600160a01b03909216918217905560039091015463095ea7b390309061054c90600a611469565b610556908661147c565b6040516001600160e01b031960e085901b1681526001600160a01b03909216600483015260248201526044016020604051808303816000875af11580156105a1573d6000803e3d6000fd5b505050506040513d601f19601f820116820180604052508101906105c59190611493565b505050565b6000546001600160a01b031633146105f45760405162461bcd60e51b8152600401610429906111e9565b6000818152600560205260409081902060010154600280546001600160a01b0319166001600160a01b0392831690811790915591516323b872dd60e01b81523060048201529084166024820152604481018590526323b872dd906064016020604051808303816000875af1158015610670573d6000803e3d6000fd5b505050506040513d601f19601f820116820180604052508101906106949190611493565b506000818152600560205260409081902090516001600160a01b038416917ff2fd36e5e89127bf385b443272521dc9eb2871dca05ecf04a72c2a08a86a8b7e916106e29187918691906114b5565b60405180910390a2505050565b6001546001600160a01b031633146107195760405162461bcd60e51b81526004016104299061154f565b6000908152600560205260409020600401805460ff19166001179055565b6001546000906001600160a01b031633146107645760405162461bcd60e51b81526004016104299061154f565b60008281526005602052604090206004015460ff1615156001146107c15760405162461bcd60e51b81526020600482015260146024820152731d1a1a5cc81d1bdad95b881a5cc81c185d5cd95960621b6044820152606401610429565b60008281526005602052604081206001810154600280546001600160a01b0319166001600160a01b0390921691821790556003909101546323b872dd903090879061080d90600a611469565b610817908a61147c565b6040516001600160e01b031960e086901b1681526001600160a01b03938416600482015292909116602483015260448201526064016020604051808303816000875af115801561086b573d6000803e3d6000fd5b505050506040513d601f19601f8201168201806040525081019061088f9190611493565b6000848152600560205260409081902090519192506001600160a01b038616917ff2fd36e5e89127bf385b443272521dc9eb2871dca05ecf04a72c2a08a86a8b7e916108de91899188916114b5565b60405180910390a2949350505050565b6000546001600160a01b031633146109185760405162461bcd60e51b8152600401610429906111e9565b6040516001600160a01b0383169082156108fc029083906000818181858888f193505050501580156105c5573d6000803e3d6000fd5b6005602052600090815260409020805481906109699061120c565b80601f01602080910402602001604051908101604052809291908181526020018280546109959061120c565b80156109e25780601f106109b7576101008083540402835291602001916109e2565b820191906000526020600020905b8154815290600101906020018083116109c557829003601f168201915b505050600184015460028501805494956001600160a01b03909216949193509150610a0c9061120c565b80601f0160208091040260200160405190810160405280929190818152602001828054610a389061120c565b8015610a855780601f10610a5a57610100808354040283529160200191610a85565b820191906000526020600020905b815481529060010190602001808311610a6857829003601f168201915b50505050600383015460049093015491929160ff16905085565b60008181526005602052604090206004015460ff161515600114610afc5760405162461bcd60e51b81526020600482015260146024820152731d1a1a5cc81d1bdad95b881a5cc81c185d5cd95960621b6044820152606401610429565b60008181526005602052604081206001810154600280546001600160a01b0319166001600160a01b0390921691821790556003909101546323b872dd9033903090610b4890600a611469565b610b52908861147c565b6040516001600160e01b031960e086901b1681526001600160a01b03938416600482015292909116602483015260448201526064016020604051808303816000875af1158015610ba6573d6000803e3d6000fd5b505050506040513d601f19601f82011682018060405250810190610bca9190611493565b905080610c095760405162461bcd60e51b815260206004820152600d60248201526c139bdd0810dbdb999a5c9b5959609a1b6044820152606401610429565b6040805160a0810182523381526020808201868152600183850181815260608501888152608086018381526004805460009081526006909752978620965187546001600160a01b0319166001600160a01b03909116178755935192860192909255516002850155516003840155519183019190915581549190610c8b8361136a565b909155505060008281526005602052604090819020905133917fd584747a333eac70bd1ea8206bf2a5b256b4c53d1ade610970f0832451d311d3916106e29187918791906114b5565b610d116040518060a001604052806060815260200160006001600160a01b0316815260200160608152602001600081526020016000151581525090565b60008281526005602052604090819020815160a08101909252805482908290610d399061120c565b80601f0160208091040260200160405190810160405280929190818152602001828054610d659061120c565b8015610db25780601f10610d8757610100808354040283529160200191610db2565b820191906000526020600020905b815481529060010190602001808311610d9557829003601f168201915b505050918352505060018201546001600160a01b03166020820152600282018054604090920191610de29061120c565b80601f0160208091040260200160405190810160405280929190818152602001828054610e0e9061120c565b8015610e5b5780601f10610e3057610100808354040283529160200191610e5b565b820191906000526020600020905b815481529060010190602001808311610e3e57829003601f168201915b50505091835250506003820154602082015260049091015460ff16151560409091015292915050565b6001546001600160a01b03163314610eae5760405162461bcd60e51b81526004016104299061154f565b6000908152600560205260409020600401805460ff19169055565b6001546001600160a01b03163314610ef35760405162461bcd60e51b81526004016104299061154f565b60009081526006602052604090206003600490910155565b600060208284031215610f1d57600080fd5b5035919050565b634e487b7160e01b600052604160045260246000fd5b600082601f830112610f4b57600080fd5b813567ffffffffffffffff80821115610f6657610f66610f24565b604051601f8301601f19908116603f01168101908282118183101715610f8e57610f8e610f24565b81604052838152866020858801011115610fa757600080fd5b836020870160208301376000602085830101528094505050505092915050565b6001600160a01b0381168114610fdc57600080fd5b50565b60008060008060808587031215610ff557600080fd5b843567ffffffffffffffff8082111561100d57600080fd5b61101988838901610f3a565b9550602087013591508082111561102f57600080fd5b5061103c87828801610f3a565b935050604085013561104d81610fc7565b9396929550929360600135925050565b6000806040838503121561107057600080fd5b50508035926020909101359150565b60008060006060848603121561109457600080fd5b8335925060208401356110a681610fc7565b929592945050506040919091013590565b600080604083850312156110ca57600080fd5b82356110d581610fc7565b946020939093013593505050565b6000815180845260005b81811015611109576020818501810151868301820152016110ed565b506000602082860101526020601f19601f83011685010191505092915050565b60a08152600061113c60a08301886110e3565b6001600160a01b0387166020840152828103604084015261115d81876110e3565b606084019590955250509015156080909101529392505050565b602081526000825160a0602084015261119360c08401826110e3565b60208501516001600160a01b0316604085810191909152850151848203601f190160608601529091506111c682826110e3565b915050606084015160808401526080840151151560a08401528091505092915050565b6020808252600990820152682737ba1037bbb732b960b91b604082015260600190565b600181811c9082168061122057607f821691505b60208210810361124057634e487b7160e01b600052602260045260246000fd5b50919050565b601f8211156105c557600081815260208120601f850160051c8101602086101561126d5750805b601f850160051c820191505b8181101561128c57828155600101611279565b505050505050565b815167ffffffffffffffff8111156112ae576112ae610f24565b6112c2816112bc845461120c565b84611246565b602080601f8311600181146112f757600084156112df5750858301515b600019600386901b1c1916600185901b17855561128c565b600085815260208120601f198616915b8281101561132657888601518255948401946001909101908401611307565b50858210156113445787850151600019600388901b60f8161c191681555b5050505050600190811b01905550565b634e487b7160e01b600052601160045260246000fd5b60006001820161137c5761137c611354565b5060010190565b600181815b808511156113be5781600019048211156113a4576113a4611354565b808516156113b157918102915b93841c9390800290611388565b509250929050565b6000826113d557506001611463565b816113e257506000611463565b81600181146113f857600281146114025761141e565b6001915050611463565b60ff84111561141357611413611354565b50506001821b611463565b5060208310610133831016604e8410600b8410161715611441575081810a611463565b61144b8383611383565b806000190482111561145f5761145f611354565b0290505b92915050565b600061147583836113c6565b9392505050565b808202811582820484141761146357611463611354565b6000602082840312156114a557600080fd5b8151801515811461147557600080fd5b83815260006020848184015260606040840152600084546114d58161120c565b80606087015260806001808416600081146114f757600181146115115761153f565b60ff1985168984015283151560051b89018301955061153f565b896000528660002060005b858110156115375781548b820186015290830190880161151c565b8a0184019650505b50939a9950505050505050505050565b602080825260159082015274596f752073686f756c64207573652042726964676560581b60408201526060019056fea2646970667358221220a7e22e4146250ca8e7a9fa6df38b68f9fef8a995d77180758c8d00c3085858a664736f6c63430008120033",
  "linkReferences": {},
  "deployedLinkReferences": {}
}